:020000040000fa
:080000000402040000000000ee
:020000040000fa
:080400000040da000000fe00dc
:020000040000fa
:1000080000020000000200000002000000020000e0
:1000180000020000000200000002000000020000d0
:1000280000020000000200000002000000020000c0
:1000380000020000000200000002000000020000b0
:10004800000200000002000000020000100a000088
:100058000002000000020000000200000002000090
:100068000002000000020000000200000002000080
:100078000002000000020000000200000002000070
:100088000002000000020000000200000002000060
:100098000002000000020000000200000002000050
:1000a8000002000000020000000200000002000040
:1000b8000002000000020000000200000002000030
:1000c8000002000000020000000200000002000020
:1000d8000002000000020000000200000002000010
:1000e8000002000000020000000200000002000000
:1000f80000020000000200000002000000020000f0
:1001080000020000000200000002000000020000df
:1001180000020000000200000002000000020000cf
:1001280000020000000200000002000000020000bf
:1001380000020000000200000002000000020000af
:10014800000200000002000000020000000200009f
:10015800000200000002000000020000000200008f
:10016800000200000002000000020000000200007f
:10017800000200000002000000020000000200006f
:10018800000200000002000000020000000200005f
:10019800000200000002000000020000000200004f
:1001a800000200000002000000020000000200003f
:1001b800000200000002000000020000000200002f
:1001c800000200000002000000020000000200001f
:1001d800000200000002000000020000000200000f
:1001e80000020000000200000002000000020000ff
:0801f8000002000000020000fb
:020000040000fa
:1002080000020000000200000002000000020000de
:1002180000020000000200000002000000020000ce
:1002280000020000000200000002000000020000be
:1002380000020000000200000002000000020000ae
:10024800000200000002000000020000100a000086
:10025800000200000002000000020000000200008e
:10026800000200000002000000020000000200007e
:10027800000200000002000000020000000200006e
:10028800000200000002000000020000000200005e
:10029800000200000002000000020000000200004e
:1002a800000200000002000000020000000200003e
:1002b800000200000002000000020000000200002e
:1002c800000200000002000000020000000200001e
:1002d800000200000002000000020000000200000e
:1002e80000020000000200000002000000020000fe
:1002f80000020000000200000002000000020000ee
:1003080000020000000200000002000000020000dd
:1003180000020000000200000002000000020000cd
:1003280000020000000200000002000000020000bd
:1003380000020000000200000002000000020000ad
:10034800000200000002000000020000000200009d
:10035800000200000002000000020000000200008d
:10036800000200000002000000020000000200007d
:10037800000200000002000000020000000200006d
:10038800000200000002000000020000000200005d
:10039800000200000002000000020000000200004d
:1003a800000200000002000000020000000200003d
:1003b800000200000002000000020000000200002d
:1003c800000200000002000000020000000200001d
:1003d800000200000002000000020000000200000d
:1003e80000020000000200000002000000020000fd
:0803f8000002000000020000f9
:020000040000fa
:100408001e020400000000000060fe00cc42aa00aa
:10041800cc42aa00cc42aa00cc42aa00cc42aa00f4
:10042800cc42aa00cc42aa00cc42aa00cc42aa00e4
:10043800f5ff37000ff02100e0ff210000018800e0
:10044800740402000000000086030200000000009f
:100458004a04020000000000280402000000000016
:1004680004040200000000009403020000000000e1
:100478006209020000000000ae0302000000000054
:100488000060fe0000712200b603020000000000b8
:10049800803e20008a0902000000000020080200b7
:1004a80000000000400120008a090200000000004e
:1004b800000000000000000009003700cc42a8003e
:1004c800a00020008a09020000000000cc42a90018
:1004d800a00020008a09020000000000f7ff370092
:1004e8000000200040458800a0142000904a8800a1
:1004f80000002000a04a88004e0902000000000009
:100508005209f8007c09f9000060fe00720302003d
:10051800000000006dc9ae00cc42a8006dc9af0054
:10052800cc42a900e04b80005209e30007003200ea
:100538000000000000000000904a88000000200031
:10054800a04a88004e09020000000000b002020024
:1005580000000000ecff37007269af0003003700ad
:100568007289af0006003700000006007269a90012
:10057800c04a8000e04a88000100220005003700d8
:100588007289a900d04a8000e04a88000128220028
:1005980000003700cc42aa003100780010458800de
:1005a800625322000200e10004003200f2ff2f0033
:1005b8000200e1000100320000000600310078006e
:1005c8002045880031007800304588000080fd0013
:1005d800f00fb200b20a20000200e1000100320070
:1005e800000006003100780050458800310078008e
:1005f8006045880031007800704588003100780037
:1006080080458800310078009045880031007800e6
:10061800a0458800604580000080fd00f00fb20012
:100628007000e10002003a001e0304000000000010
:100638000000060060458000f00fb2006100e10094
:1006480001003900000006000060010000003700ca
:1006580031007800a04b880031007800b04b88004a
:1006680031007800c04b880031007800d04b8800fa
:1006780031007800801f7800f00fb200e04b88004e
:10068800201220007c29b4004f0078000080fd0073
:10069800f00fb200f04b88000000060060458000b3
:1006a800f00fb2006800e100010039000000060008
:1006b8000060010008003700070037000600370017
:1006c8000500370004003700030037000200370038
:1006d8000100370000000600000006006e29ef0048
:1006e800300880006c89b6004220af000000060088
:1006f800704b88007029b7006ca9b6000060fe0036
:1007080000000600218820000060fe008018eb0031
:1007180000f021000008e100fbff3900000006009e
:10072800103a800021742000620420007305200024
:10073800824878008348780000000000000000002c
:1007480000002000203a880060002000403a88001d
:100758000000060081e0a80000032a008008880045
:10076800000006000060fe000000e900fdff3a00fe
:10077800000006000060fe00b00a2000201188007a
:10078800400620008a09020000000000f9ff370037
:100798000060fe008560ae00fdff37008560a9009f
:1007a80030118000faff3700300220004011880025
:1007b80080002800001188000040200010118800e7
:1007c800aa40a900aa20a800aa00a8008580a9001c
:1007d8009580a80030118000301180003011800011
:1007e800301180008560a900a9c0a900a9a0a800af
:1007f800a980a8008560a9009560a80000000600ef
:10080800f019200080002000401188008000280096
:100818000011880000402000101188008560a900a0
:1008280030118000301180003011800030118000bc
:10083800a9c0a900a9a0a900a980a8008560a9004d
:100848009560a800000006002174200062042000c2
:1008580073052000824878008348780042c7a900c1
:10086800c0f0210020358800003020006036880064
:10087800217420006204200073052000824878005b
:100888008348780042c7a80000000600cd22a900ce
:10089800c922a900d4c2a900d0c2a900d4e2a900e3
:1008a800d0e2a900d502a900d102a900d522a90049
:1008b800d122a900c942a800cc42a900c842a90077
:1008c800cb82a800cda2a900c9a2a900c902a8008c
:1008d800f0ff2f00601988006ac0a8000000060019
:1008e8000000eb00000778000c000900002f7800da
:1008f8000007eb00000006000000000000000000f8
:1009080000000000000000000000000000000600d9
:10091800d4e2a8008004020000000000d4e2a9008c
:1009280080040200000000000001eb0085e8ae0032
:10093800d4c2a90085e8af00d4c2a8008004020090
:1009480000000000cd22a800800402000000000082
:10095800cd22a90082a8d60084a8d6000201e8000a
:10096800000220000010e100f0ff3900d4c2a90005
:10097800d4e2a80000000600d502a8000000060086
:100988008428ef0060002000104488008c040200d6
:10099800000000008228ef008428ef00d4e2a800bd
:1009a8008004020000000000800402000000000033
:1009b8000001eb00cd22a800800402000000000026
:1009c80000000000000000000000000082a8d6001f
:1009d80084a8d600cb02af008208a800cd22a900c7
:1009e80080040200000000000201e800100220005c
:1009f8000010e100efff3900000006000c050200be
:100a080000000000ee0502000000000000000600e3
:100a180000002000b0458800a00f2000c0458800d5
:100a280000002000d045880000002000e045880034
:100a380010002000f04588000000200000468800d3
:100a48001000200010468800f0ff20002046880093
:100a58000000200030468800000020004046880042
:100a6800c000200050468800000020006046880032
:100a78000000200070468800100020008046880092
:100a8800000020009046880000002000a046880052
:100a980000002000b046880000002000c046880002
:100aa80010002000d046880000002000e0468800a2
:100ab80000002000f0468800000020000047880061
:100ac8000000200010478800000020002047880010
:100ad80000002000304788000000200040478800c0
:100ae8000000200050478800000020006047880070
:100af8000000200070478800000020008047880020
:100b0800300020009047880000002000a04788009f
:100b180000002000b047880000002000c04788007f
:100b280010002000d047880010002000e04788000f
:100b380000002000f0478800b0002000004888002e
:100b4800000020001048880000002000204888008d
:100b5800100020003048880000002000404888002d
:100b680000002000504888001000200060488800dd
:100b7800200020007048880000002000804888007d
:100b8800000020009048880000002000a04888004d
:100b980000002000b048880000002000c0488800fd
:100ba80010002000d048880000002000e04888009d
:100bb80000002000f048880000002000004988005c
:100bc800000020001049880000002000204988000b
:100bd80000000600f2ff20003629ef003829ef0058
:100be800b608af0039e9a800c04580004100de0022
:100bf8003829b700b808af0037e9a800d045800009
:100c0800020060004300dd003629b7003c29ef00f0
:100c180010002000d0498800bc08af003de9a800ba
:100c2800f04580003000b2004d00dd003c29b700df
:100c3800004680003000b2004b00dd003c29b700c0
:100c480010468000020060004100de003c29b70029
:100c5800c208af003be9a8002046800002006000ff
:100c68004300dd003a29b7004029ef0020002000aa
:100c7800f0498800c608af0041e9a8004046800056
:100c88003000b2004d00dd004029b700504680001a
:100c98007000b2004a00dd004029b700cc08af0060
:100ca8004129a800ce08af004109a800804680006d
:100cb800f03fb2004280de004029b700d008af0004
:100cc8003fc9a800d028af003fe9a800d208af006c
:100cd8003fa9a800a0468000f000b2004900dd004e
:100ce8003e29b700d608af003f09a800d808af00d2
:100cf8003ee9a800da08af003ec9a800dc08af004a
:100d08003ea9a800de08af003e89a800e008af00b1
:100d18003e69a8004429ef0030002000104a8800ee
:100d280010478000f003b2004a00dd004429b700f4
:100d3800e408af004529a800e608af004509a80067
:100d480040478000f001b2004300dd004429b700ad
:100d5800ea08af004449a800ec08af004429a800fd
:100d6800ee08af0043e9a800ee28af004409a80048
:100d780080478000000061004300dd004229b70081
:100d88004829ef0040002000304a88009047800042
:100d98007000b2004d00dd004829b700f408af002c
:100da8004989a800f608af004969a800f808af000b
:100db8004949a800d04780003000b2004800dd0053
:100dc8004829b700fc08af0048e9a800f0478000b0
:100dd8007000b2004400dd004829b70000488000d8
:100de800000fb2004400de004829b7000048800028
:100df800f000b2004c00dd004629b7000209af0040
:100e08004769a8000409af004749a8000609af00d0
:100e18004729a8000809af004709a80050488000e2
:100e28003000b2004600dd004629b7000c09af00cb
:100e380046a9a800704880003000b2004300dd00d9
:100e48004629b7004c29ef0050002000504a88007e
:100e58001009af004be9a800904880003000b200ac
:100e68004d00dd004c29b700a04880007000b2009a
:100e78004a00dd004c29b7001609af004d29a8002b
:100e88001809af004d09a800d04880003000b20012
:100e98004600dd004c29b700e04880007000b20031
:100ea8004300dd004c29b700ca68af004c49a800d0
:100eb8002149af004c29a8002129af004c09a800fe
:100ec80000498000f01fb2004700dd004a29b70042
:100ed8002209af004ac9a800204980007000b2006a
:100ee8004300dd004a29b70000000600ee050200b5
:100ef80000000000de07020000000000d00702002a
:100f080000000000c207020000000000b407020051
:100f180000000000a6070200000000009807020079
:100f280000000000000006003609f8008208f900f9
:100f38003809f8008408f9008c0402000000000059
:100f4800000006003a09f8008208f9003c09f80098
:100f58008408f9008c04020000000000000006006c
:100f68003e09f8008208f9004009f8008408f900f1
:100f78008c04020000000000000006004209f8008e
:100f88008208f9004409f8008408f9008c0402007a
:100f980000000000000006004609f8008208f90079
:100fa8004809f8008408f9008c04020000000000d9
:100fb800000006004a09f8008208f9004c09f80008
:100fc8008408f9008c0402000000000000000600fc
:100fd800c404020000000000204480004c00de0031
:100fe800f000b20030498800204480004700de004d
:100ff8001000b2005049880020448000f007b20079
:1010080060498800104480004f00de001000b200e4
:1010180070498800104480004900de001000b200ca
:1010280090498800104480004300de00f003b200bd
:10103800a049880000000600d502a900a0002000f1
:101048008a09020000000000000000000000000003
:1010580000000000000000000c0502000000000075
:10106800d502a800d522a900000020006048880009
:101078000000200040488800ee0502000000000043
:101088007a07020000000000400120008a090200df
:101098000000000000002000b0458800100e20006d
:1010a800c0458800007d2000d04588000000200051
:1010b800e045880010002000f0458800000020006e
:1010c800004688001000200010468800f0ff20002d
:1010d80020468800000020003046880000002000dc
:1010e80040468800c00020005046880000002000cc
:1010f800604688000000200070468800200020001c
:10110800804688000000200090468800f0002000fb
:10111800a046880000002000b0468800000020009b
:10112800c046880010002000d0468800000020003b
:10113800e046880000002000f046880000002000fb
:1011480000478800000020001047880000002000a9
:101158002047880010002000304788000000200049
:1011680040478800000020005047880010002000f9
:10117800604788000000200070478800800c20002d
:101188008047880030002000904788000000200039
:10119800a047880000002000b04788000000200019
:1011a800c047880010002000d047880010002000a9
:1011b800e047880000002000f04788000009200070
:1011c8000048880000002000104888001000200017
:1011d80020488800000020003048880000002000d7
:1011e8004048880000002000504888001000200077
:1011f8006048880030002000704888000000200007
:1012080080488800000020009048880000002000e6
:10121800a048880000002000b04888001000200086
:10122800c048880010002000d04888000000200036
:10123800e048880000002000f048880000002000f6
:1012480000498800000020001049880000002000a4
:10125800204988007a070200000000000000000012
:10126800000000000000000000000000a0002000b6
:101278008a09020000000000ec07020000000000dc
:101288000000000000000000000000000000000056
:1012980000000600a809020000000000ee05020098
:1012a80000000000d00702000000000098070200bc
:1012b80000000000d522a800000006001000200051
:1012c8003174200082072000a30920000300fc00dd
:1012d800824878008348780043e7b70021742000eb
:1012e80062042000730520000300fc008248780097
:1012f800834878004207a8000000000000000000b2
:101308000000000000000600100020008208f8001d
:101318008408f800204488003008800010448800c1
:101328000060fe00104480000601b500000cb20009
:10133800fbff32008428ed00f7ff3a008408f9002b
:101348008208f90000000600c01220005209e300dc
:1013580007003100600920005209e3000f00310046
:10136800b00420005209e300150031000000060017
:10137800fe28ef00904a80004100de00c04588004a
:10138800ba28ef005209af00bb68a800a04a800045
:101398004200dd00ba28b400120037001000200017
:1013a800f0478800904a8000c0458800ba28ef00be
:1013b800a04a80004100dd00ba28b40009003700c7
:1013c80020002000f0478800904a80004100dd009e
:1013d800c0458800ba28ef00a04a8000ba28b400a7
:1013e80000003700bbe8af0006003700bb88ae003e
:1013f80000000600b828ec00f0ff2000ba28b6006c
:1014080000000600b828ed00f0ff2000ba28b6005a
:1014180000000600af0000004200f800801f7800be
:10142800811f78008560a90031118000f10fb2009a
:10143800a00e20000100e10022003200b00e2000c2
:101448000100e10024003200c00e20000100e1008c
:1014580037003200b00a20007229af00810068000e
:101468007229a900002820005609e3003200310043
:10147800000022007249af00002822005609b4007b
:101488000000a1005609af000200370001087800eb
:10149800030037000180fd00108840000180fd0036
:1014a800304b8000404b880001007800304b8800aa
:1014b800010078006429b40062a9b6005629ec003e
:1014c8001e0037007229a9005629ef006429ef0091
:1014d8006229ef00190037007229a900b00a20001c
:1014e8006289b6006689b60014003a00304b800065
:1014f8006609b4006809b4006489b600f00fb20048
:101508000e003a00b04a80007249ae00c04a880016
:101518007249af00d04a88007249ae007269a800cb
:101528007249af007289a8007249aa000300370007
:101538007229a8000100370000000000cf007800e1
:101548004f0078004200f900004006004200f80011
:10155800801f7800811f78008580a90072a9ae00dd
:101568001000370001502200f04a8000810040003e
:101578000100a100110078005e09af000080fd00a5
:10158800f00fb200201188005e29ec00004b8000ab
:101598005e09e3000300390072a9a90072c9a80016
:1015a8007209a800cf0078004f0078004200f900c7
:0415b80000400600e9
:020000040000fa
:1015bc000008000080010000000000000000000096
:00000001FF
